S01500006D6F6E69746F725F6672746F732E737265637A
S11300000030002059160000A5270000B127000089
S1130010B1270000B1270000B1270000B12700007C
S1130020B1270000B1270000B1270000413F0000C4
S1130030B1270000B1270000413F0000E53E000069
S1130040B1270000B1270000B1270000B12700004C
S1130050B1270000B1270000B1270000B12700003C
S1130060B1270000B1270000B1270000B12700002C
S1130070B51F0000B1270000B1270000C523000010
S1130080B127000029370000B1270000B127000084
S1130090B1270000B1270000B1270000B1270000FC
S11300A0B1270000B1270000B1270000B1270000EC
S11300B0B1270000B1270000B1270000B1270000DC
S1130400FFFFFFFFFFFFFFFFFFFFFFFF7EFFFFFF79
S113041010B5064C2378002B07D1054B002B02D0D6
S1130420044800E000BF0123237010BDB4F0FF1F97
S113043000000000E46B000008B5084B002B03D05B
S11304400748084900E000BF07480368002B03D0B1
S1130450064B002B00D0984708BDC04600000000A2
S1130460E46B0000B8F0FF1FB4F0FF1F00000000B1
S1130470164B002B00D1144B9D46402292029A1A2F
S1130480924600218B460F461348144A121A05F06F
S113049024F80F4B002B00D098470E4B002B00D0B4
S11304A098470020002104000D000D48002802D0C8
S11304B00C4800E000BF04F0E1FF2000290000F038
S11304C06FFB04F0B3FFC0460000080000300020BA
S11304D00000000000000000B4F0FF1FB80300207B
S11304E00000000000000000002934D00123002295
S11304F010B488422CD301242407A14204D281429F
S113050002D209011B01F8E7E400A14204D28142AE
S113051002D249005B00F8E7884201D3401A1A432B
S11305204C08A04202D3001B5C0822438C08A04262
S113053002D3001B9C082243CC08A04202D3001B18
S1130540DC082243002803D01B0901D00909E3E792
S1130550101C10BC7047002801D00020C04307B411
S1130560024802A14018029003BDC04619000000D1
S11305700029F0D003B5FFF7B9FF0EBC4243891A36
S11305801847C0467047C04602780B7801300131E5
S1130590002A01D09A42F7D0D01A704780B500AF34
S11305A0BD4680BD80B582B000AF7860396072B658
S11305B0FEE7C04680B500AFBD4680BD80B500AF44
S11305C0BD4680BD80B500AF72B6FEE780B500AF12
S11305D0BD4680BD80B582B000AFFB1D00221A70FD
S11305E0FB1D181C01F05EF9031C002B05D1FB1D3B
S11305F01B785BB2181C00F0E3FD034B05221A6064
S1130600BD4602B080BDC04604F0FF1F80B500AFF8
S1130610124B1B78002B11D1114B181C00F0E6FD76
S1130620031C002B14D00E4B1B78DBB2181C01F0FA
S113063097F9031CDAB2094B1A7009E0084B1B78CE
S1130640DBB2181C01F08CF9031CDAB2034B1A70EC
S1130650044B05221A60BD4680BDC046D0F0FF1F82
S1130660D1F0FF1F00F0FF1F80B500AF024B012245
S11306701A70BD4680BDC046D2F0FF1F80B500AFE2
S1130680BD4680BD80B500AFBD4680BD80B584B099
S113069000AF78600A1CFB1C1A703B1C0F3300224D
S11306A01A703B1C0E33EFF3108072B61870264B91
S11306B01B78DBB20133DBB2234A191C1170012B06
S11306C004D13B1C0E331A78204B1A707B68181C1B
S11306D000F0B6F8031C002B20D17A684023D35CC9
S11306E05A1CD0B2796840228854FA1C11787A686E
S11306F0D1547A684023D25C3F231340D9B27A683C
S11307004023D1547A684223D35C0133D9B27A6846
S11307104223D1543B1C0F3301221A700A4B1B781D
S1130720DBB2013BDBB2084A191C1170002B03D168
S1130730064B187880F310883B1C0F331B78181C69
S1130740BD4604B080BDC04628F1FF1F88030020C9
S113075080B584B000AF786039603B1C0F33002251
S11307601A703B1C0E33EFF3108072B61870264BD0
S11307701B78DBB20133DBB2234A191C1170012B45
S113078004D13B1C0E331A78204B1A707B68181C5A
S113079000F068F8031C002B21D07A684123D35C55
S11307A05A1CD0B27968412288547A68D35CDAB290
S11307B03B681A707A684123D25C3F231340D9B254
S11307C07A684123D1547A684223D35C013BD9B27D
S11307D07A684223D1543B1C0F3301221A700A4B0E
S11307E01B78DBB2013BDBB2074A191C1170002BEA
S11307F003D1064B187880F310883B1C0F331B7809
S1130800181CBD4604B080BD28F1FF1F88030020DA
S113081080B584B000AF78603B1C0F3300221A709F
S11308207B68002B05D03B1C0F33796842228A5C1D
S11308301A703B1C0F331B78181CBD4604B080BDD6
S113084080B582B000AF78607B68181CFFF7E0FFCA
S1130850031C3F229A429B415B42DBB2181CBD46FB
S113086002B080BD80B582B000AF78607B68181C90
S1130870FFF7CEFF031C5A1E9341DBB2181CBD4682
S113088002B080BD80B584B000AF78607B68002B77
S113089024D07A6841230021D1547A68402300216E
S11308A0D1547A6842230021D1543B1C0F330022D7
S11308B01A700DE03B1C0F331B785BB27A68002181
S11308C0D1543B1C0F331A783B1C0F3301321A707E
S11308D03B1C0F331B785BB23F2BEBDDBD4604B0F2
S11308E080BDC04680B500AF0D4B0020191C00F040
S11308F019FB0C4B0120191C00F014FB0A4B0420BB
S1130900191C00F00FFB094B0320191C00F00AFB13
S1130910074B0220191C00F005FBBD4680BDC046F4
S113092035090000BD0900000D0A0000550A000049
S1130930690A000080B582B000AF78607B689B686C
S1130940012B13D0022B21D0002B2FD17B68DB6825
S1130950002B05D0184B9B68181C01F0CFFD25E037
S1130960154B9B68181C01F0D7FD1FE07B68DB6802
S1130970002B05D0104B1B68181C01F06FFD15E00F
S11309800D4B1B68181C01F077FD0FE07B68DB68DA
S1130990002B05D0084BDB68181C01F0FBFD04E0BC
S11309A0054BDB68181C01F001FEC04600235BB256
S11309B0181CBD4602B080BD4CF1FF1F90B585B038
S11309C002AF78607B689B68032B01D9FF2313E097
S11309D07B68191C10317A687B689C687B6898680E
S11309E0084B4000C35A181C074B0090081C191CE4
S11309F0231C04F07BFD00235BB2181CBD4603B02E
S1130A0090BDC046B402002030690000F0B587B044
S1130A1004AF78607B68181C10307A687B689B6828
S1130A200A4909780E1C094949780D1C0749897837
S1130A300C1C074900960195029404F057FD00230D
S1130A405BB2181CBD4603B0F0BDC046B002002026
S1130A503C69000080B582B000AF786000235BB2CF
S1130A60181CBD4602B080BD80B582B000AF78606E
S1130A7000235BB2181CBD4602B080BD80B500AF38
S1130A80002000F03FFE031C002B0CD1074B00227A
S1130A901A70C046054B1B78DBB2002BFAD0044B0E
S1130AA0181C00F053FEBD4680BDC046D2F0FF1FA7
S1130AB0B402002080B500AF024B181C02F050FDB8
S1130AC0BD4680BDB002002080B500AF02F05CFDE1
S1130AD002F070FDBD4680BD80B582B000AF786085
S1130AE0642003F0C7FFFBE780B582B000AF7860F5
S1130AF0FFF7F8FE00F05CF8002003F0BBFFF9E715
S1130B0080B582B000AF7860FFF7DEFFFFF7D2FF59
S1130B10FFF7B4FF0A2003F0ADFFF7E780B582B01A
S1130B2002AF194A194B0021009100210191101CB8
S1130B30191CC822002303F06FFE031C012B00D0F4
S1130B40FEE7134A134B0021009100210191101C70
S1130B50191CC822002303F05FFE031C012B00D0E4
S1130B60FEE70D4A0D4B0021009100210191101C5C
S1130B70191CC822002303F04FFE031C012B00D0D4
S1130B80FEE7BD4680BDC046D90A00004C6900009E
S1130B90E90A000058690000010B00006C690000BC
S1130BA080B500AF01F092FE03F088FFFEE7C04677
S1130BB080B500AF184B1B780B2B04D89A00174B49
S1130BC0D3181B689F4600F04BFA20E000F028F889
S1130BD01DE000F03DF81AE000F03AF817E000F0EC
S1130BE08FF814E000F072F811E000F0A3F80EE0C2
S1130BF000F010FA0BE000F01DFB08E000F046FAEC
S1130C0005E000F065FA02E000F086FAC04600F064
S1130C1053FBBD4680BDC046D3F0FF1FCC69000026
S1130C2080B582B000AFFB1D181C00F0F1FA031C64
S1130C30002B09D0FB1D1B785BB25B2B04D100F0A9
S1130C4001FB022000F096FABD4602B080BDC0460A
S1130C5080B582B000AFFB1D181C00F0D9FA031C4C
S1130C60002B2DD0FB1D1B785BB25B2B03D0164BE6
S1130C701B7C0F2B03D9092000F07CFA20E0FB1D1C
S1130C801B785BB25D2B0BD10F4B1B7C012B03D963
S1130C90042000F06FFA13E0092000F06BFA0FE073
S1130CA0032000F067FA084B1B7C5A1CD1B2064A99
S1130CB011741A1C0F231340FA1D1178024AD154DF
S1130CC0BD4602B080BDC046BC02002080B582B0E3
S1130CD000AFFB1D181C00F09BFA031C002B0BD06B
S1130CE0FB1D1B785BB20A2B03D1052000F042FAEE
S1130CF002E0092000F03EFABD4602B080BDC046C5
S1130D0080B582B000AFFB1D181C00F081FA031CF3
S1130D10002B0BD0FB1D1B785BB20D2B03D10620DF
S1130D2000F028FA02E0092000F024FABD4602B0DF
S1130D3080BDC04680B500AF00F00EF800F06EF83C
S1130D40031C002B03D0072000F014FA02E0092052
S1130D5000F010FABD4680BD90B583B000AF3B1DD6
S1130D603A221A703B1D00225A702B4A3B1D101C5C
S1130D70191C04F0ECFB031C002B49D1FB1D0022C1
S1130D801A7004E0FB1D1A78FB1D01321A70FB1D5A
S1130D9000229A56204B1B7C9A420FDAFB1D1B78CB
S1130DA05BB21D4AD35C5BB22F2BEBDDFB1D1B78C2
S1130DB05BB2194AD35C5BB2392BE3DC164B1B7C68
S1130DC01A1CFB1D1B785BB201339A4220DBFB1D0E
S1130DD01B785BB210493A1D081C111C1A1C00F048
S1130DE02DFBFB1D1B785BB202331C1C0A4B181C29
S1130DF004F0A6FB031C9C420AD2FB1D1B785BB2C9
S1130E00023305493A1D081C111C1A1C00F016FB7C
S1130E10BD4603B090BDC046BC02002080B584B07E
S1130E2000AF3A1D3D4B101C191C3A2200F054FA35
S1130E303B1D1B68002B65D03B1C0F3300221A702E
S1130E4050E03B1D1A683B1C0F331B785BB29B00C0
S1130E50D3181B68002B3ED03B1C0F331B785BB2AE
S1130E60012B0CD0022B15D0002B1ED13B1D1B686F
S1130E701B682B4A101C191C04F05AFB15E03B1D7F
S1130E801B6804331B68181C04F0CAFA021C244BA8
S1130E909A600AE03B1D1B6808331B68181C04F0A9
S1130EA0BFFA021C1E4BDA60C0463B1D1A683B1C8D
S1130EB00F331B785BB29B00D3181B68181C02F01D
S1130EC0C1FD3B1D1A683B1C0F331B785BB29B00B2
S1130ED0D31800221A603B1C0F331A783B1C0F33C3
S1130EE001321A703B1C0F3300229A563B1D5B687B
S1130EF09A42A6D33B1D1B68181C02F0A3FD3B1DA0
S1130F0000221A603B1D5B6801229A429B415B42AE
S1130F10DBB2181CBD4604B080BDC046BC02002034
S1130F201403002080B584B000AF021C3960FB1D9F
S1130F301A703B1C0F3300221A7023E03B1C0F3342
S1130F4000229A561449131C5B009B189B00CB1873
S1130F505B79FA1D12789A420DD13B1C0F330022A3
S1130F609A560D49131C5B009B189B00CB18083341
S1130F703A681A600DE03B1C0F331A783B1C0F33A0
S1130F8001321A703B1C0F3300229A5605239A42F1
S1130F90D4DBBD4604B080BD08F0FF1F80B582B02D
S1130FA000AF00237B60FB1C00221A7022E0FB1CB4
S1130FB000229A56131C5B009B189B00134A9A1834
S1130FC0134B101C191CFFF7DFFA031C002B0CD168
S1130FD0FB1C00229A560D49131C5B009B189B00B6
S1130FE0CB1808331B687B600AE0FB1C1A78FB1CD7
S1130FF001321A70FB1C00229A5605239A42D6DB52
S11310007B68181CBD4602B080BDC04608F0FF1FB7
S11310101403002080B582B000AFFFF7BFFF031CAC
S11310207B607B68002B12D00C4A7B68101C9847AD
S1131030031C002B0BD1094B1B7C002B03D0082075
S113104000F098F806E00A2000F094F802E00B2083
S113105000F090F8BD4602B080BDC04614030020E5
S113106080B500AF00F0EEF8064B181CFFF70AFC41
S1131070054B181CFFF706FC012000F07BF8BD4669
S113108080BDC046D00200203403002090B583B058
S113109002AF0C4B9C680B4BD8680B490B4A094BAD
S11310A00090081C111C1A1C231C04F01FFA064B88
S11310B0181C00F03FF8012000F05CF8BD4601B0B8
S11310C090BDC0461403002024030020786900006A
S11310D090B583B002AF0D4B9C680C4BD8680C499B
S11310E00C4A0A4B009015200190081C111C1A1C74
S11310F0231C04F0FBF9064B181C00F01BF801201C
S113110000F038F8BD4601B090BDC046140300207D
S1131110240300208469000080B500AF044B181C30
S113112000F008F8012000F025F8BD4680BDC04657
S11311302403002080B584B000AF78607B68FB6036
S1131140FB68002B12D007E0FB685A1CFA601B787E
S11311505BB2181C00F01EF8FB681B78002BF3D15F
S11311600D2000F017F80A2000F014F8BD4604B072
S113117080BDC04680B582B000AF021CFB1D1A7052
S1131180034BFA1D12781A70BD4602B080BDC046EA
S1131190D3F0FF1F80B582B000AF021CFB1D1A7094
S11311A0064AFB1D1B785BB2101C191CFFF76EFA74
S11311B0031C181CBD4602B080BDC0463403002089
S11311C080B582B000AF021CFB1D1A70064AFB1DDD
S11311D01B785BB2101C191CFFF758FA031C181C6F
S11311E0BD4602B080BDC046D002002080B582B0AA
S11311F000AF7860054A7B68101C191CFFF7A8FA39
S1131200031C181CBD4602B080BDC0463403002038
S113121080B582B000AF7860054A7B68101C191C49
S1131220FFF796FA031C181CBD4602B080BDC046E9
S1131230D002002080B500AF0120FFF79BFFBD4620
S113124080BDC04680B582B000AF134B00229A60C7
S1131250114B0022DA60114B00221A74FB1D00228C
S11312601A7011E0FB1D1B785BB20C4A0021D154AB
S1131270FB1D1B785BB2084AD31800221A74FB1DAD
S11312801A78FB1D01321A70FB1D1B785BB20F2B01
S1131290E8DDBD4602B080BD14030020BC0200207E
S11312A080B500AF034B181CFFF7DCFA031C181CB5
S11312B0BD4680BD3403002080B500AFFFF7F0FFCA
S11312C0031C002B06D000F09FFB031C002B01D154
S11312D0FFF79CF9BD4680BD90B58BB000AFF860B8
S11312E0B960FB1D1A703B1C1433FA1D12781A7076
S11312F03B1C143300225A70BB687B62BB683B61A1
S1131300FB6800225A6000233B62FB6800221A60DB
S11313100023BB61BB68002B00D185E011E07B6A30
S11313201B78FA1D127852B25BB29A4206D1FB685E
S11313305B685A1CFB685A607B6A3B627B6A0133B8
S11313407B627B6A1B78002BE9D1FB685C68BB6815
S1131350181C04F0F5F8031C013BBA68D3183A6A68
S11313609A429B415B42DBB2E218FB685A60FB681D
S11313705B68002B58D0FB685B689B00181C02F06C
S1131380B1FA031C1A1CFB681A60FB681B68002B6B
S11313904AD00023FB61FB681A68FB699B00D318E1
S11313A000221A6031E0FB685A68FB699A4206D849
S11313B01F49204A204B081C342104F013F8BB6950
S11313C0181C04F0BDF8031C0133181C02F08AFA3F
S11313D0031C7B62BB69181C04F0B2F8031C0133C4
S11313E07A6A101C00211A1C04F077F87A6ABB6927
S11313F0101C191C04F09CF8FB681A68FB69591C42
S1131400F9619B00D3187A6A1A6039693A1C14325C
S11314103B1C1033081C111C1A1C04F0DFF8031CBD
S1131420BB61BB69002BBED1BD460BB090BDC046AD
S113143090690000FC690000A469000090B587B0C1
S113144000AFF860B9607A60FB68181C04F078F8A3
S1131450021C7B68D41ABB68181C04F071F8031CC6
S1131460E31801337B617B69002B31D07B69181C45
S113147002F038FA031C3B613B69002B28D03A691F
S11314807B69101C00211A1C04F027F83A69BB6818
S1131490101C191C04F04CF8BB68181C04F050F81C
S11314A0031C3A69D2187B68F968CB18101C191C04
S11314B004F03EF87B68FA68D2183B69101C191CCA
S11314C004F036F83B69181C02F0BCFA00233B61B7
S11314D0BD4607B090BDC04680B58AB000AFF86085
S11314E0B9607A607B687B6204233B620323FB61FF
S11314F00223BB6101237B6101233B61FA68BB6862
S11315009A4202D07B68002B00D14DE049E0BB68D1
S1131510FA69134018D1FB68FA69134014D17A6A46
S11315203B6A9A4210D3FB68BA6812681A60FA6878
S11315303B6AD318FB60BA683B6AD318BB607A6A0B
S11315403B6AD31A7B622CE0BB687A69134018D1DA
S1131550FB687A69134014D17A6ABB699A4210D342
S1131560FB68BA6812881A80FA68BB69D318FB60F2
S1131570BA68BB69D318BB607A6ABB69D31A7B6249
S11315800FE0FB68BA6812781A70FA683B69D318DE
S1131590FB60BA683B69D318BB607A6A3B69D31AAB
S11315A07B627B6A002BB2D1BD460AB080BDC046C7
S11315B090B583B000AF234B002B00D13EE0002355
S11315C07B601DE01F497A68131C5B009B189B001D
S11315D0CB1858681B497A68131C5B009B189B0046
S11315E05958184C7A68131C5B009B189B00E3182D
S11315F008331B681A1CFFF76FFF7B6801337B609D
S113160010497A68131C5B009B189B005B58002BE5
S1131610D8D10C497A68131C5B009B189B00CB182B
S11316205B68002BCED107497A68131C5B009B18BA
S11316309B00CB1808331B68002BC3D1BD4603B0F5
S113164090BDC046C06C000080B500AFBD4680BDF3
S113165080B500AFBD4680BD0A4C201C002805D0D3
S1131660854681B00020C043009001B0FFF7ECFF35
S113167001F0A4F8FFF79CFFFFF7EAFFFEF7F8FE7E
S1131680FEE7C0460030002080B500AF064B0022C4
S11316901A80054B00225A80034B00229A80024B89
S11316A00022DA80BD4680BD7803002080B500AFFB
S11316B00F4B1B78DBB2002B17D00E4B00221A7095
S11316C00D4B00221A70FFF7DFFF0C4B00221A703B
S11316D00B4B1A68094B101C191C012200F0B0FDB9
S11316E0074B1B68181C00F089FDBD4680BDC04631
S11316F0D5F0FF1FDCF0FF1FD4F0FF1FD8F0FF1F51
S11317008003002080B582B000AF021CFB1D1A705C
S11317100D4B1B78DBB2002B01D008230FE00A4BE2
S113172001221A70FFF7C2FFFB1D1B78002B05D0A6
S1131730C046054B1B78DBB2012BFAD00023181CE2
S1131740BD4602B080BDC046D5F0FF1F80B582B053
S113175000AF7860114B1B78DBB2002B01D1092359
S113176017E00F4B1B889AB27B681A807B680233A0
S11317700B4A528892B21A807B680433084A9288D2
S113178092B21A807B680633054AD28892B21A80D4
S11317900023181CBD4602B080BDC046DCF0FF1F0C
S11317A07803002080B582B000AF7860244B1B78AA
S11317B0DBB2042B0AD1234B1B68181C00F0A6FDD6
S11317C01F4B00221A70FEF759FF35E01D4B1A68B3
S11317D01D4B1B78DBB259001C4BCB18101C191C79
S11317E000F064FD184B1B78DBB20133DAB2164B00
S11317F01A70154B1B78DBB2042B0BD1124B002251
S11318001A70134B01221A70FEF72EFF0C4B0022A4
S11318101A7011E00C4B1B78DAB20E4B1A70094B9C
S11318201A680C4B101C191C012200F009FD054B11
S11318301B68181C00F0E2FCBD4602B080BDC04627
S1131840D5F0FF1F80030020D4F0FF1F7803002091
S1131850DCF0FF1FD8F0FF1F80B500AF064B00225D
S11318601A70064B00221A70002000F053FC021C70
S1131870034B1A60BD4680BDDCF0FF1FD5F0FF1F8F
S11318808003002080B500AF044B1A68044B101C81
S1131890191C012200F074FABD4680BD84030020A7
S11318A0E0F0FF1F80B584B000AF78603B1C0F33BD
S11318B000221A70244B1B881A1C0823134001D1E0
S11318C00A233CE03B1C0E33EFF3108072B6187011
S11318D01E4B1B78DBB20133DBB21C4A191C11709E
S11318E0012B04D13B1C0E331A78194B1A70194B77
S11318F01A787B681A70144B1B881A1C164B1340F9
S113190001D0192300E000233A1C0F3213700E4B50
S11319101A88124B13409AB20B4B1A800B4B1B784C
S1131920DBB2013BDBB2094A191C1170002B03D155
S1131930074B187880F310883B1C0F331B78181C56
S1131940BD4604B080BDC046DEF0FF1F28F1FF1F76
S113195088030020E0F0FF1F01080000F6F7FFFFF6
S113196080B584B000AF021CFB1D1A70214B1B888C
S11319701A1C1023134001D00B2336E03B1C0F33F9
S1131980EFF3108072B618701B4B1B78DBB2013377
S1131990DBB2194A191C1170012B04D13B1C0F3303
S11319A01A78164B1A70164BFA1D12781A70154BCA
S11319B01A68134B101C191C012200F02DFA0D4B50
S11319C01B88102213439AB20A4B1A800A4B1B78C5
S11319D0DBB2013BDBB2084A191C1170002B03D1A6
S11319E0064B187880F310880023181CBD4604B0F9
S11319F080BDC046DEF0FF1F28F1FF1F88030020D2
S1131A00E1F0FF1F8403002080B500AF054B1B8865
S1131A101A1C1023134001D0012300E00023181CDA
S1131A20BD4680BDDEF0FF1F80B500AF064B00222F
S1131A301A80002000F0C6F8021C044B1A60FFF75D
S1131A4021FFBD4680BDC046DEF0FF1F8403002099
S1131A5090B583B000AF78600024154B1B881A1C26
S1131A600823134009D0124B1B88012213439AB256
S1131A700F4B1A8001232343DCB20D4B1B88082231
S1131A8013439AB20A4B1A80221C0123134002D03A
S1131A90FEF79CFD01E0FEF79DFD064B1A68064B20
S1131AA0101C191C012200F06BF9BD4603B090BD57
S1131AB0DEF0FF1F84030020E0F0FF1F80B584B038
S1131AC000AF78603B1C0E3300221A800F4B1B883A
S1131AD01A1C1023134007D03B1C0E333A1C0E3241
S1131AE0128802210A431A80084B1B881022934350
S1131AF09AB2064B1A803B1C0E331A8802231340F9
S1131B0001D0FEF783FDBD4604B080BDDEF0FF1FAB
S1131B1080B584B000AF7860204B1A683B1C0C334E
S1131B20101C191C00F0BCFAFB68002B31D0FA68B9
S1131B300223134001D0042300E00023184A128832
S1131B4013439AB2164B1A80FA680823134001D043
S1131B50802300E00023124A128813439AB2104BE8
S1131B601A80FB689AB2012313409AB20C4B1B886B
S1131B7013439AB20A4B1A80FA680423134001D023
S1131B80022300E00023064A128813439AB2044B4E
S1131B901A80FEF71BFDBD4604B080BD84030020FF
S1131BA0DEF0FF1F80B582B000AF7860044B1B8865
S1131BB0022213439AB2024B1A80BD4602B080BD82
S1131BC0DEF0FF1F80B584B000AF7860614BFB602E
S1131BD0FB6800221A81FB6800221A82FB6800223B
S1131BE0DA60FB6800225A82FB6800221A83FB68D1
S1131BF000225A61FB687A68DA61574BFA681A6006
S1131C00564A5649564BCB588021C9001943544B68
S1131C10D150544B534A5168534A0A408021890099
S1131C200A435A604F4B4F4A91684F4A0A408021F9
S1131C3089000A439A604D4A4C49C3239B00CB5800
S1131C40C021181C8843011CC3239B00D150474B5F
S1131C50464A1268802149010A431A60444B444AA7
S1131C60D278D2B208218A43D2B2DA70404B404AC9
S1131C70D278D2B204218A43D2B2DA70FB6800224D
S1131C801A80FB6800225A60394B00229A70384B44
S1131C9000229A71364B00229A72354B00225A71F7
S1131CA02E4A2E49334BC958334B0B408021C9046B
S1131CB01943304BD1502E4B2D4A1278D2B21F21EA
S1131CC08A43D2B21A702A4B5E225A70284B284A91
S1131CD0927AD2B2D2B21F218A43D2B203210A43EA
S1131CE0D2B2D2B29A72224B214AD27AD2B2D2B2B0
S1131CF002210A43D2B2D2B2DA721D4B1C4AD27804
S1131D00D2B2D2B208210A43D2B2D2B2DA70184B9C
S1131D10174AD278D2B2D2B204210A43D2B2D2B292
S1131D20DA70134B124AD278D2B220210A43D2B2CB
S1131D30DA700F4B0E4A9279D2B20F210A43D2B213
S1131D409A710E4BFA685A60FB68181CBD4604B0C1
S1131D5080BDC046E4F0FF1F04F1FF1F0070044083
S1131D603410000000900440FFF8FFFE00E100E0A2
S1131D7000A0064004100000FFFFFFF34CF1FF1F1A
S1131D8080B586B000AFF860B960BB1D1A80FB68EF
S1131D907B61BB1D1B88002B01D1842333E07B694D
S1131DA01B8A002B01D008232DE03B1C1333EFF3D7
S1131DB0108072B61870164B1B78DBB20133DBB29D
S1131DC0134A191C1170012B04D13B1C13331A78CC
S1131DD0104B1A707B69BA68DA607B69BA1D128885
S1131DE01A827B6900221A81094B1B78DBB2013B02
S1131DF0DBB2074A191C1170002B03D1054B18786C
S1131E0080F310880023181CBD4606B080BDC04670
S1131E1028F1FF1F8803002080B586B000AFF8606A
S1131E20B960BB1D1A80FB687B61BB1D1B88002B3E
S1131E3001D1842348E07B691B8B002B01D008234C
S1131E4042E03B1C1333EFF3108072B61870204B42
S1131E501B78DBB20133DBB21D4A191C1170012B54
S1131E6004D13B1C13331A781A4B1A707B69BA6875
S1131E705A617B69BA1D12881A837B6900225A82CF
S1131E807B691B88012213439AB27B691A80124B27
S1131E90114AD278D2B2802149420A43D2B2DA70CE
S1131EA00D4B0D4A9279D2B29A71094B1B78DBB271
S1131EB0013BDBB2064A191C1170002B03D1054B00
S1131EC0187880F310880023181CBD4606B080BD26
S1131ED028F1FF1F8803002000A0064090B583B0BE
S1131EE000AF7860124BDB79DBB21C1C7B681B8A69
S1131EF0002B1AD07B68DB68591C7A68D160E2B287
S1131F001A707B681B8901339AB27B681A817B68DB
S1131F101A897B681B8A9A4207D17B6800221A823D
S1131F207B68DB69181CFFF793FDBD4603B090BDC9
S1131F3000A0064080B582B000AF78607B685A8A02
S1131F407B681B8B9A421CD219497B685B69581CBD
S1131F507A6850611B78CB717B685B8A01339AB2D3
S1131F607B685A827B685A8A7B681B8B9A421CD195
S1131F707B6800221A837B68DB69181CFFF79EFDCF
S1131F8013E00B4B0A4AD278D1B27F220A40D2B274
S1131F90DA70074B064A9279D2B29A717B681B8831
S1131FA0012293439AB27B681A80BD4602B080BD79
S1131FB000A00640F0B5474680B482B000AF364B6F
S1131FC01B687B60354B1B79DBB21C1C002500268B
S1131FD00F23234047D0314B0F221A712F4BDB794B
S1131FE0DBB298460223234013D0202323400DD094
S1131FF04246002A0AD1331C0133DEB27B681B88B7
S1132000022213439AB27B681A8002E004232B4312
S11320109DB20823234002D001232B439DB2012308
S1132020234002D002232B439DB20423234002D039
S113203008232B439DB27B685A682B1C1A437B6888
S11320405A602023221C9A43131C1C1C002E05D00A
S11320507B68DB69181CFFF7A5FD04E07B68DB697E
S1132060181CFFF755FD2023234003D07B68181C60
S1132070FFF734FF7B681B881A1C0123134006D02A
S11320808023234003D07B68181CFFF753FFBD4611
S113209002B004BC9046F0BD04F1FF1F00A006404E
S11320A080B584B000AF786039607B68FB603B1C0E
S11320B00B33EFF3108072B61870144B1B78DBB23D
S11320C00133DBB2114A191C1170012B04D13B1CE2
S11320D00B331A780E4B1A70FB685A683B681A6007
S11320E0FB6800225A60094B1B78DBB2013BDBB270
S11320F0064A191C1170002B03D1054B187880F384
S113210010880023181CBD4604B080BD28F1FF1FB1
S11321108803002080B584B000AF78602E4BFB604C
S1132120FB687A685A602D4BFA681A60FB680022D3
S11321301A70FB6800229A70294A2949294BCB5806
S1132140802109051943274BD150274A2649C32327
S11321509B00CB589B009908C3239B00D150224B72
S1132160214A1268802109020A431A601F4B1F4A40
S1132170116D1F4A0A401A651C4B1C4A516D1C4ABA
S11321800A405A651B4B1B4AD26810218A43DA6005
S1132190164B164A916D164A0A409A65134B134A18
S11321A0916F134A0A409A67124B6C229A60114B42
S11321B0104AD2680F218A43DA600E4B00221A6259
S11321C00C4B40225A620C4BFA681A61FB68181CCB
S11321D0BD4604B080BDC04608F1FF1F10F1FF1FCB
S11321E0007004403C10000000E100E000D0044016
S11321F0FFF8FFFE00B003404CF1FF1F80B582B032
S113220000AF78600D4B1A6A8023134001D0082375
S113221010E00A4B094A526A48218A435A62074B22
S1132220064A126A40218A431A62044B7A68527839
S11322301A600023181CBD4602B080BD00B00340E4
S113224080B586B000AFF860B960FB1D1A70FB68FA
S11322507B61FB1D1B78012B03D8FB1D1B78002B16
S113226001D196231AE00F4B1A6A8023134001D040
S1132270082313E07B69FA1D12781A70BB681B7877
S1132280032B01D9822309E0BB681B78064AD35C7F
S113229040221343DAB27B695A700023181CBD46EE
S11322A006B080BD00B00340086A000080B584B069
S11322B000AF786039603B68BB603B1C0F33002281
S11322C01A7015E03B1C0F331B785B00BA68D318F7
S11322D00D4A391C0F310978043189008A5892B2A9
S11322E01A803B1C0F331A783B1C0F3301321A70CF
S11322F07B681B783A1C0F3212789A42E2D300238F
S1132300181CBD4604B080BD00B0034080B584B045
S113231000AF78602A4B5A6A4023134001D01B2334
S11323204AE0274BDB6CFB60254B9B6CFA68D318A7
S1132330FB60234B5B6CFA68D318FB60204B1B6C6F
S1132340FA68D318FB601E4BDB6BFA68D318FB608A
S11323501B4B9B6BFA68D318FB60FB685B088022FD
S113236012021343FB60164BFA68DA62144BDB6EFD
S1132370FB60134B9B6EFA68D318FB60104B5B6ECB
S1132380FA68D318FB600E4B1B6EFA68D318FB6017
S11323900B4BDB6DFA68D318FB60094B9B6DFA6835
S11323A0D318FB60FB685B08802212021343FB60B6
S11323B0034BFA681A630023181CBD4604B080BDA1
S11323C000B0034080B582B000AF084B1B687B604F
S11323D07B6801229A707B685B68181CFFF7E2F93E
S11323E0034B1B69BD4602B080BDC04610F1FF1F00
S11323F000B0034080B584B000AF7860114BFB603F
S1132400FB687A681A60104B0F4A52698021C9022E
S11324100A435A610C4B0C4A11680C4A0A401A6070
S11324200B4B0B4A916C0B4A0A40802149000A432A
S11324309A64094BFA681A60FB68181CBD4604B01C
S113244080BDC04614F1FF1F40F00F40FFFFFBFFAB
S113245000A00440FFF8FFFE4CF1FF1F80B582B0DE
S113246000AF7860034B8022D2029A60BD4602B06E
S113247080BDC04640F00FF880B582B000AF7860F0
S1132480034B8022D2025A60BD4602B080BDC046D2
S113249040F00FF880B584B000AF7860114BFB605A
S11324A0FB687A681A60104B0F4A5269802109034D
S11324B00A435A610C4B0C4A11680C4A0A401A60D0
S11324C00B4B0B4AD16C0B4A0A40802149000A434A
S11324D0DA64094BFA689A60FB68181CBD4604B0BC
S11324E080BDC04618F1FF1F40F00F40FFFFF7FF0B
S11324F000A00440FFF8FFFE4CF1FF1F80B582B03E
S113250000AF7860034B802212039A60BD4602B08C
S113251080BDC04640F00FF880B582B000AF78604F
S1132520034B802212035A60BD4602B080BDC046F0
S113253040F00FF880B584B000AF7860104BFB60BA
S1132540FB687A681A600F4B0E4A526902210A43EB
S11325505A610C4B0B4A126802218A431A600A4BD7
S1132560094A5168094A0A40802149000A435A60CD
S1132570074BFA68DA60FB68181CBD4604B080BDDE
S11325801CF1FF1FC0F00F4000C00440FFF8FFFE25
S11325904CF1FF1F80B582B000AF7860024B02227D
S11325A09A60BD4602B080BDC0F00FF880B582B01D
S11325B000AF7860024B02225A60BD4602B080BD73
S11325C0C0F00FF880B584B000AF7860104BFB60AA
S11325D0FB687A681A600F4B0E4A526901218A43DC
S11325E05A610C4B0B4A126801210A431A600A4BC8
S11325F0094A1168094A0A40802149000A431A60BD
S1132600074BFA68DA61FB68181CBD4604B080BD4C
S113261020F1FF1F00F10F4000D00440FFF8FFFE3F
S11326204CF1FF1F80B582B000AF78600A1CFB1C20
S11326301A70FB1C1B78002B06D0084B074A526902
S113264001210A435A6105E0044B044A52690121FD
S11326508A435A61BD4602B080BDC04600F10FF8FE
S113266080B584B000AF78600B4B5A6901231340E6
S113267005D1094B1A6901231340FB6004E0064BA2
S11326801A6801231340FB60FB685A1E9341DBB2B6
S1132690181CBD4604B080BD00F10FF880B582B0AF
S11326A000AF7860024B01229A60BD4602B080BD43
S11326B000F10FF880B584B000AF7860104BFB6078
S11326C0FB687A681A600F4B0E4A526902218A43EA
S11326D05A610C4B0B4A126802210A431A600A4BD6
S11326E0094A5168094A0A40802149000A435A604C
S11326F0074BFA681A62FB68181CBD4604B080BD1B
S113270024F1FF1F00F10F4000D00440FFF8FFFE4A
S11327104CF1FF1F80B582B000AF78600A1CFB1C2F
S11327201A70FB1C1B78002B06D0084B074A526911
S113273002210A435A6105E0044B044A526902210A
S11327408A435A61BD4602B080BDC04600F10FF80D
S113275080B584B000AF78600B4B5A6902231340F4
S113276005D1094B1A6902231340FB6004E0064BB0
S11327701A6802231340FB60FB685A1E9341DBB2C4
S1132780181CBD4604B080BD00F10FF880B582B0BE
S113279000AF7860024B02229A60BD4602B080BD51
S11327A000F10FF880B500AFFDF7F8FEBD4680BD1F
S11327B080B500AFFFBEBD4680BDC04680B500AF4A
S11327C0364A3749374BD150374A88235B010021B9
S11327D0D150354A354BC0218902D150324A324951
S11327E0334BCB58D82189011943314BD150314B4C
S11327F09B78DBB21A1C0823134007D02D4B2D4ABB
S11328009278D2B208210A43D2B29A70264A274B50
S11328100021D150244A2449274BC958274B194039
S1132820254BD150204B204A1268C02109030A438A
S11328301A601D4A1C49204BC958214B0B4080216A
S1132840490419431C4BD1501E4B06221A701D4BD0
S113285000225A701B4B1B4AD278D1B21F220A4065
S1132860D2B2DA70184B80221A70164B00221A71F9
S1132870144B00225A71C046124B9B79DBB21A1CCE
S113288010231340F8D0C0460E4B9B79DBB21A1CC0
S11328900C231340F8D1BD4680BDC04600E000E0E3
S11328A000000000080D0000007004404410000007
S11328B03810000000D0074004100000FFFFFCFFA8
S11328C0FFFFFFFC004006400050064080B500AF0B
S11328D000F09CF8444B444A1169444A0A40E02100
S11328E0C9000A431A61424B414A5279D2B21F21AC
S11328F08A43D2B25A713E4B3D4A1279D2B2072171
S11329008A43D2B21A713B4B3A4A1278D2B2D2B24B
S113291073218A43D2B250210A43D2B2D2B21A707E
S1132920344B344A5278D2B2D2B263218A43D2B2FF
S113293040210A43D2B2D2B25A702E4B2D4A927819
S1132940D2B219218A43D2B29A702B4B00221A7048
S1132950254B254A116D254A0A40E021C9000A4346
S11329601A65264A2549C1239B00C958244B19409E
S1132970C1239B00D150234A2249234BCB589B00AF
S11329809908214BD1501F4A1E49D2231B01C95813
S11329901B4B1940D2231B01D15000F047FE0020ED
S11329A0FFF728FD00F0D0FDFFF73EF80020FFF709
S11329B071FD00F0BDFD0020FFF7BCFD00F0ACFD93
S11329C0FEF74AFF002000F0DDFE00F087FF002044
S11329D0FFF7F8FD0020FFF76DFE00F093FD00F017
S11329E063F9BD4680BDC04600900440FFF8FFFE79
S11329F000F0074000D0074000E0074000E100E09D
S1132A00FFFF3FFF00E000E01C0D000080B500AFB9
S1132A1072B601F015FABD4680BDC04680B500AF60
S1132A20044B1A6801235B42101C191C01F0B8FB0B
S1132A30BD4680BD2CF1FF1F80B500AF034B1B6862
S1132A40181C01F081FBBD4680BDC0462CF1FF1F60
S1132A5080B582B000AF021CFB1D1A70FFF7DEFFC9
S1132A60FB1D1B78181C00F039FD031C002B03D040
S1132A70FFF7E2FF1B2300E00023181CBD4602B051
S1132A8080BDC04680B500AFFFF7D6FF0023181CF9
S1132A90BD4680BD90B587B000AFB9607B603B1C7C
S1132AA00F33011C19703B1C0E331A703B1C173377
S1132AB000221A703B1C0F331B78181CFFF7C8FF49
S1132AC0031C002B01D01B2348E0BB68002B17D04C
S1132AD03B1C0E331B789AB23C1C1734B9683B1C60
S1132AE01433081C111C1A1C00F0D0FA031C2370A8
S1132AF03B1C17331B78002B02D000F0C7FC23E0EB
S1132B003C1C173479683B1C28331A883B1C14334B
S1132B10081C111C1A1C00F09DFC031C23703B1C98
S1132B2017331B78002B02D000F0B0FC0CE03C1CE7
S1132B30173400F0ABFC031C23703B1C17331B78C9
S1132B40002B00D000E0C046FFF79CFF031C002BC5
S1132B5001D01B2302E03B1C17331B78181CBD4615
S1132B6007B090BD90B589B000AFB9607B603B1CE5
S1132B700F33011C19703B1C0E331A703B1C1933A4
S1132B8000221A703B1C0F331B78181CFFF760FFE0
S1132B90031C002B01D01B2380E03B1C0E331A784E
S1132BA03B1C30331B88D318102B01DD1B2375E02D
S1132BB03B1C1A3300221A80BB68FB6114E03B1CE7
S1132BC01A331B883A1C1A32591C11801A1CFB69CF
S1132BD0591CF9611978334B99543B1C0E331A78FC
S1132BE03B1C0E33013A1A703B1C1A331B880F2B03
S1132BF004D83B1C0E331B78002BE0D17B68FB61AF
S1132C0014E03B1C1A331B883A1C1A32591C1180DD
S1132C101A1CFB69591CF9611978224B99543B1C05
S1132C2030331A883B1C3033013A1A803B1C1A3368
S1132C301B880F2B04D83B1C30331B88002BE0D19E
S1132C403C1C193417493B1C1A331A883B1C163395
S1132C50081C111C1A1C00F019FA031C23703B1CDD
S1132C6019331B78002B02D000F010FC0CE03C1C44
S1132C70193400F00BFC031C23703B1C19331B7824
S1132C80002B00D000E0C046FFF7FCFE031C002B25
S1132C9001D01B2302E03B1C19331B78181CBD46D2
S1132CA009B090BD30F1FF1F80B500AF042001F0E2
S1132CB02DFA021C074B1A60064B1B68002B00D12F
S1132CC0FEE7044B1A68044B101C191C01F07EFD2E
S1132CD0BD4680BD2CF1FF1FB869000080B584B0EB
S1132CE002AF3A60FB1D021C1A70BB1D0A1C1A704D
S1132CF0FB1D1978BA1D3B6801200090081C111CAB
S1132D000122FFF7C7FE031C181CBD4602B080BD9C
S1132D1080B584B002AFFB1D1870BB1D19707B1DFC
S1132D201A70FB1D1978BA1D7B1D01200090081C28
S1132D30111C0122FFF716FF031C181CBD4602B02C
S1132D4080BDC04680B500AF01F0BEF8142000F08D
S1132D5069FD00F051FDBD4680BDC04680B584B01C
S1132D6000AF021CFB1D1A703B1C0F3380221A702B
S1132D703B1C0E3308221A705DE0FB1D3A1C0F3217
S1132D801B7812781340DBB2002B06D02E4BDB6984
S1132D90181C0021FFF746FC0AE02B4BDB69181CCA
S1132DA00121FFF73FFC284BDB69181CFFF776FC79
S1132DB0FFF7C8FF3B1C0F333A1C0F32127852083E
S1132DC01A70214B1B6A181C0021FFF7A3FCFFF7A4
S1132DD0B9FF3B1C0C33012252421A8008E03B1C11
S1132DE00C331A883B1C0C33013A1A8001F06CF83E
S1132DF0154B1B6A181CFFF7ABFC031C002B04D1FA
S1132E003B1C0C331B88002BE9D1FFF79BFF0E4BB7
S1132E101B6A181C0121FFF77DFC0B4B1B6A181C55
S1132E20FFF7B4FCFFF78EFF3B1C0E331A783B1CF4
S1132E300E33013A1A703B1C0E331B78002B9CD1C5
S1132E40BD4604B080BDC0464CF1FF1F80B582B0C2
S1132E5000AFFB1D00221A702D4BDB69181C0021EA
S1132E60FFF7E0FBFFF76EFFBB1D08221A7045E079
S1132E70274B1B6A181C0021FFF74CFCFFF762FF6D
S1132E803B1D012252421A8006E03B1D1A883B1D5D
S1132E90013A1A8001F018F81D4B1B6A181CFFF741
S1132EA057FC031C002B03D13B1D1B88002BECD1CA
S1132EB0FFF748FFFA1DFB1D1B78DB181370144B3A
S1132EC0DB69181CFFF7CCFB031C002B04D0FB1D93
S1132ED01A78FB1D01321A700D4B1B6A181C012154
S1132EE0FFF718FC0A4B1B6A181CFFF74FFCFFF78F
S1132EF029FFBB1D1A78BB1D013A1A70BB1D1B7834
S1132F00002BB5D1FB1D1B78181CBD4602B080BD3B
S1132F104CF1FF1F80B582B000AF194BDB69181C60
S1132F200021FFF77FFBFFF70DFF154B1B6A181CF1
S1132F300021FFF7EFFBFFF705FFBB1D0122524203
S1132F401A8006E0BB1D1A88BB1D013A1A8000F0E6
S1132F50BBFF0B4B1B6A181CFFF7FAFB031C002B6F
S1132F6003D1BB1D1B88002BECD1054BDB69181C5E
S1132F70FFF776FB031C181CBD4602B080BDC0469B
S1132F804CF1FF1F80B584B000AF021CFB1D1A700A
S1132F90FFF7D8FEFB1D1B78002B06D0284BDB69FE
S1132FA0181C0021FFF73EFB0AE0254BDB69181CC7
S1132FB00121FFF737FB224BDB69181CFFF76EFB7F
S1132FC0FFF7C0FE1E4B1B6A181C0021FFF7A2FB73
S1132FD0FFF7B8FE3B1C0E33012252421A8008E070
S1132FE03B1C0E331A883B1C0E33013A1A8000F046
S1132FF06BFF134B1B6A181CFFF7AAFB031C002B67
S113300004D13B1C0E331B88002BE9D1FFF79AFE39
S11330100B4B1B6A181C0121FFF77CFB084B1B6A36
S1133020181CFFF7B3FBFFF78DFE054BDB69181C7B
S11330300021FFF7F7FAFFF785FEBD4604B080BD17
S11330404CF1FF1F80B500AFFFF77CFE0E4BDB6930
S1133050181C0121FFF7E6FA0B4BDB69181CFFF77C
S11330601DFB094B1B6A181C0021FFF753FBFFF7DC
S113307069FE054BDB69181C0021FFF7D3FAFFF743
S113308061FEBD4680BDC0464CF1FF1F90B587B0C0
S113309000AFF8607A603B1C0A330A1C1A807B6814
S11330A000221A803B1C1633802252001A806F4B78
S11330B0DB69181C0021FFF7B5FA6C4B1B6A181C5E
S11330C00021FFF727FBFFF73DFE3B1C14330122D1
S11330D052421A8008E03B1C14331A883B1C1433F8
S11330E0013A1A8000F0F0FE604BDB69181CFFF710
S11330F0B7FA031C002B04D13B1C14331B88002B90
S1133100E9D1FFF71FFE3B1C14331B88002B01D1B0
S11331100823A7E0554BDB69181C0121FFF782FA4D
S1133120524BDB69181CFFF7B9FAFFF70BFE4F4B44
S11331301B6A181C0121FFF7EDFA4C4B1B6A181C83
S1133140FFF724FBFFF7FEFD494B1B78181CFFF724
S113315005FE3C1C1334FFF7DDFE031C23703B1CEF
S113316016333A1C16321288013A1A803B1C163365
S11331701B88002B04D03B1C13331B78002B96D1E7
S11331803B1C13331B78002B01D008236AE0374B18
S11331901B6A181C0121FFF7BDFA344B1B6A181C6B
S11331A0FFF7F4FAFFF7CEFD002430E0231CFA68A1
S11331B0D3181B78181CFFF7D1FDFFF7ABFE031CD7
S11331C0002B0ED0294B1B6A181C0121FFF7A2FA11
S11331D0264B1B6A181CFFF7D9FAFFF733FF0823A5
S11331E040E0224B1B6A181C0121FFF793FA1F4B86
S11331F01B6A181CFFF7CAFAFFF7A4FD7B681B883B
S113320001339AB27B681A80231C01339CB23B1CA5
S11332100A331B88A342C9D8FFF794FD3B1C14331F
S1133220012252421A8008E03B1C14331A883B1CCA
S11332301433013A1A8000F047FE0C4BDB69181C6A
S1133240FFF70EFA031C002B04D13B1C14331B881C
S1133250002BE9D13B1C14331B88002B01D108231C
S113326000E00023181CBD4607B090BD4CF1FF1FC1
S113327040F1FF1FB0B586B000AFF8607A601A1C49
S11332803B1C0A3319803B1C09331A707B680022EB
S11332901A803B1C1633802252001A803B1C0933CF
S11332A01B78002B00D07EE0684BDB69181C0021E2
S11332B0FFF7B8F9654B1B6A181C0021FFF72AFABF
S11332C0FFF740FD3B1C1433012252421A8008E0F0
S11332D03B1C14331A883B1C1433013A1A8000F047
S11332E0F3FD5A4BDB69181CFFF7BAF9031C002BDA
S11332F004D13B1C14331B88002BE9D1FFF722FDBA
S11333003B1C14331B88002B01D1082399E04F4B3D
S1133310DB69181C0121FFF785F94C4BDB69181C8C
S1133320FFF7BCF9FFF70EFD484B1B6A181C01217F
S1133330FFF7F0F9454B1B6A181CFFF727FAFFF754
S113334001FD434B1B780133DBB2181CFFF706FD6C
S11333503C1C1334FFF7DEFD031C23703B1C1633A7
S11333603A1C16321288013A1A803B1C16331B8809
S1133370002B04D03B1C13331B78002B94D13B1C33
S113338013331B78002B01D008235AE02F4B1B6A00
S1133390181C0121FFF7BEF92C4B1B6A181CFFF700
S11333A0F5F9FFF7CFFC002445E0231CFA68D51893
S11333B0FFF74CFD031C2B703B1C143301225242BB
S11333C01A8008E03B1C14331A883B1C1433013A5E
S11333D01A8000F079FD1D4BDB69181CFFF740F9DA
S11333E0031C002B04D13B1C14331B88002BE9D194
S11333F03B1C14331B88002B01D1082321E0221C21
S11334003B1C0A331B88013B9A4208D13B1C2833DE
S11334101B78002B06D10120FFF7B4FD02E0002049
S1133420FFF7B0FD7B681B8801339AB27B681A8072
S1133430231C01339CB23B1C0A331B88A342B4D81F
S11334400023181CBD4606B0B0BDC0464CF1FF1F9A
S113345040F1FF1F80B586B002AFF8607A603B1C74
S11334600A330A1C1A80F9683B1C0A331A887B68E1
S113347000200090081C111C1A1C0023FFF7FAFE00
S1133480031C181CBD4604B080BDC04680B500AF07
S1133490FFF758FC104BDB69181C0121FFF7C2F839
S11334A00D4BDB69181CFFF7F9F8FFF74BFC0A4BCF
S11334B01B6A181C0021FFF72DF9FFF743FC064B8C
S11334C0DB69181C0021FFF7ADF8FFF73BFC002374
S11334D0181CBD4680BDC0464CF1FF1F80B582B0AC
S11334E000AF021CFB1D1A70FB1D1B78DB18DAB23F
S11334F0034B1A700023181CBD4602B080BDC046A1
S113350040F1FF1F80B500AF024B00221A70BD4688
S113351080BDC04640F1FF1F80B500AF034BDB68A0
S1133520181CFFF743F8BD4680BDC0464CF1FF1F91
S113353080B500AF034B9B68181CFEF7EDFFBD463A
S113354080BDC0464CF1FF1F80B500AF034B1B6824
S1133550181CFEF791FFBD4680BDC0464CF1FF1F0D
S113356080B584B002AF7860064A7B68032100917D
S11335701D20111C0122FFF78DFA031C181CBD46E7
S113358002B080BD0C6A000080B500AF0022084B79
S11335901A800022064B5A800022054B9A801D2077
S11335A02A210122FFF7B4FB031C181CBD4680BD71
S11335B044F1FF1F90B583B000AFFC1DBB1D1D205F
S11335C02A211A1CFFF78AFB031C2370FB1D1B789E
S11335D0002B02D0FB1D1B7819E0BB1D1B781A1CA5
S11335E00123134001D0002311E0012000F05AF917
S11335F0BB1D1B7801221343DAB2BB1D1A70BB1D1D
S11336001B781D202A211A1CFFF782FB031C181C9F
S1133610BD4603B090BDC04680B582B000AF7860AF
S1133620FDF730F8BD4602B080BDC04680B500AF9E
S1133630FDF774FABD4680BD80B584B000AF7860F4
S1133640304B5B69002B4BD12F4BFB60FB687A68D6
S11336509A60FB6801221A712C4BFA681A602C4A92
S11336602B492C4BCB58802149041943294BD15069
S1133670294B00221A60284B00225A60264B002254
S1133680DA60254B00225A61234B0022DA61224B77
S113369000225A62204B0022DA621F4B00225A6336
S11336A01D4B1E4A9A60FB68802252001A601C4A15
S11336B01B49C4239B00C9581A4B1940C4239B00BF
S11336C0D150174B164A1268802189020A431A60A6
S11336D0114B48221A600B4BFA685A61FB680CE0E4
S11336E0084B5B69FB60FB687A689A60FB681B792E
S11336F00133DAB2FB681A71FB68181CBD4604B0CA
S113370080BDC0464CF1FF1F70F1FF1F7CF1FF1F0D
S1133710007004403C10000000800340EB510000A6
S113372000E100E0FF3FFFFF80B582B000AF134B24
S11337301B683B6000237B60114B1A688023134095
S113374004D07B688022520013437B603B681A6874
S11337507B6813407B607A6880235B0013400AD047
S1133760074B074A126880210A431A603B689B682A
S1133770181C00F02FF8BD4602B080BD7CF1FF1F7D
S11337800080034080B584B000AF78600F4BFB60CD
S1133790FB687A689A60FB6801221A710C4BFA681C
S11337A09A610020FFF748FF021CFB681A60FB685F
S11337B01B68002B04D1064B00229A61002300E011
S11337C0FB68181CBD4604B080BDC04680F1FF1FD5
S11337D04CF1FF1F80B584B000AF7860054B9B6946
S11337E0FB60FB689B68181CFFF716FFBD4604B01E
S11337F080BDC0464CF1FF1FC046C046C04670475E
S113380001B40020C046C046C046C0460130092865
S1133810F8D9C046C046C046C046C046C046C046A9
S113382001BC704780B582B000AF021CBB1D1A807A
S113383006E0FFF7E5FFBB1DBA1D1288643A1A8043
S1133840BB1D1B88642BF4D806E0FFF7D5FFBB1D16
S1133850BA1D12880A3A1A80BB1D1B880A2BF4D899
S1133860BD4602B080BDC04680B582B000AF78606E
S113387007E00A4B181CFFF7D5FF7B68084A9B1822
S11338807B607A68054B9A42F3D87B689BB2181C1C
S1133890FFF7C8FFBD4602B080BDC04660EA000025
S11338A0A015FFFF80B584B000AF021CBB1D1A80B9
S11338B0094BFB6008E0FB68181CFFF7D5FFBB1D34
S11338C01A88BB1D013A1A80BB1D1B88002BF2D13C
S11338D0BD4604B080BDC046EB51000080B500AFCA
S11338E0BD4680BD80B586B000AF78600023FB6024
S11338F001F01AF94D4B1B68002B01D100F0ECF8D4
S11339004B4B1B687A68134000D07CE07B68002B2B
S113391013D0484B1B687A68D3187B607A680723F6
S113392013400AD07B680722934308337B607A688C
S11339300723134001D072B6FEE77B68002B62D0E8
S11339403D4B1B687A689A425DD83C4B3B613B4BCC
S11339501B687B6104E07B693B617B691B687B615D
S11339607B695A687B689A4203D27B691B68002B87
S1133970F1D12E4B1B687A699A4244D03B691A688C
S11339802C4B1B68D318FB607B691A683B691A606F
S11339907B695A687B68D21A264B1B685B009A4283
S11339A016D97A697B68D318BB60BA6807231340B9
S11339B001D072B6FEE77B695A687B68D21ABB688D
S11339C05A607B697A685A60BB68181C00F0E6F894
S11339D0194B1A687B695B68D21A174B1A60164B2D
S11339E01A68174B1B689A4203D2134B1A68144B7C
S11339F01A607B695A680E4B1B681A437B695A60CC
S1133A007B6900221A6001F09BF8FB68002B01D14E
S1133A10FCF7D8FDFA680723134001D072B6FEE71D
S1133A20FB68181CBD4606B080BDC046940100204A
S1133A30A001002044F0FF1F980100208C01002009
S1133A409C01002080B584B000AF78607B68FB6087
S1133A507B68002B36D01D4B1B685B42FA68D31879
S1133A60FB60FB68BB60BB685A68194B1B6813405A
S1133A7001D172B6FEE7BB681B68002B01D072B699
S1133A80FEE7BB685A68124B1B6813401AD0BB6828
S1133A901B68002B16D1BB685A680D4B1B68DB43AF
S1133AA01A40BB685A6001F03FF8BB685A68094B7A
S1133AB01B68D218074B1A60BB68181C00F06EF81C
S1133AC001F03EF8BD4604B080BDC04644F0FF1F7F
S1133AD0A00100209801002080B584B000AF8023AD
S1133AE05B01BB60264BFB60FA68072313400CD0D4
S1133AF0FB680733FB60FB6807229343FB60BA68EB
S1133B00FB68D21A1E4BD318BB60FB687B601D4B4D
S1133B107A681A601B4B00225A607A68BB68D31813
S1133B20FB60194B1B68FA68D31AFB60FB68072219
S1133B309343FB60FA68154B1A60144B1B68002210
S1133B405A60124B1B6800221A607B683B603B681A
S1133B50FA68D21A3B685A600C4B1A683B681A60C0
S1133B603B685A680A4B1A603B685A68094B1A60EA
S1133B70094B802212061A60BD4604B080BDC046BF
S1133B808CF1FF1F8C01002044F0FF1F94010020E2
S1133B909C01002098010020A001002080B584B081
S1133BA000AF7860264BFB6002E0FB681B68FB609B
S1133BB0FB681A687B689A42F7D3FB68BB60FB68B2
S1133BC05B68BA68D2187B689A4208D1FB685A6865
S1133BD07B685B68D218FB685A60FB687B607B6813
S1133BE0BB607B685B68BA68D218FB681B689A4242
S1133BF018D1FB681A68134B1B689A420DD07B6876
S1133C005A68FB681B685B68D2187B685A60FB685B
S1133C101B681A687B681A6008E00A4B1A687B689C
S1133C201A6003E0FB681A687B681A60FA687B68AC
S1133C309A4202D0FB687A681A60BD4604B080BD1F
S1133C408C0100209401002080B582B000AF786020
S1133C507B681A1C08327B685A607B6801225242D6
S1133C609A607B681A1C08327B68DA607B681A1CCD
S1133C7008327B681A617B6800221A60BD4602B074
S1133C8080BDC04680B582B000AF78607B680022FA
S1133C901A61BD4602B080BD80B584B000AF7860C3
S1133CA039607B685B68FB603B68FA685A60FB6854
S1133CB09A683B689A60FB689B683A685A60FB683C
S1133CC03A689A603B687A681A617B681B685A1C78
S1133CD07B681A60BD4604B080BDC04680B584B020
S1133CE000AF786039603B681B68BB60BB68013318
S1133CF003D17B681B69FB600CE07B680833FB60C5
S1133D0002E0FB685B68FB60FB685B681A68BB6881
S1133D109A42F6D9FB685A683B685A603B685B680C
S1133D203A689A603B68FA689A60FB683A685A6035
S1133D303B687A681A617B681B685A1C7B681A6046
S1133D40BD4604B080BDC04680B584B000AF786085
S1133D507B681B69FB607B685B687A6892689A6021
S1133D607B689B687A6852685A60FB685A687B680B
S1133D709A4203D17B689A68FB685A607B68002288
S1133D801A61FB681B685A1EFB681A60FB681B6893
S1133D90181CBD4604B080BD80B584B000AFF86087
S1133DA0B9607A60FB68043BFB60FB6880225204C4
S1133DB01A60FB68043BFB60BA68FB681A60FB6826
S1133DC0043BFB60FB6800221A60FB68143BFB6049
S1133DD07A68FB681A60FB68203BFB60FB68181C70
S1133DE0BD4604B080BDC04680B500AF0A4B0A4A48
S1133DF01268C02109060A431A60084B06221A6099
S1133E00074B084A1A60084B00221A60034B07222A
S1133E101A60BD4680BDC04620ED00E010E000E021
S1133E2014E000E03233030018E000E080B500AF96
S1133E30024B07221A60BD4680BDC04610E000E078
S1133E4080B500AF024B06221A60BD4680BDC04655
S1133E5010E000E080B500AF094B094A1268F02178
S1133E6089040A431A60074B00221A60FFF7BCFF5B
S1133E70FFF7DCFF00F044F80023181CBD4680BDAA
S1133E8020ED00E048F0FF1F80B500AF72B6054B8F
S1133E901B685A1C034B1A60BFF34F8FBFF36F8F1D
S1133EA0BD4680BD48F0FF1F80B500AF054B1B68C1
S1133EB05A1E044B1A60034B1B68002B00D162B6D8
S1133EC0BD4680BD48F0FF1F80B500AF044B802283
S1133ED052051A60BFF34F8FBFF36F8FBD4680BD8D
S1133EE004ED00E080B500AF72B600F0B5FE031C2F
S1133EF0002B01D0FFF7E8FF62B6BD4680BDC04687
S1133F0080B500AF0A4A13681868203080F3098826
S1133F10022080F31488BFF36F8F3FBCAE4608BC09
S1133F2004BC62B61847C046C046C046C046C04638
S1133F30A4010020BD4680BDC046C046C046C04660
S1133F40EFF309800E4B1A6820381060F0C0444625
S1133F504D4656465F46F0C008B572B600F038FFCD
S1133F6062B60CBC116808681030F0C8A046A946B7
S1133F70B246BB4680F309882038F0C81847C046CB
S1133F80A401002080B584B000AF786039607B68FC
S1133F90FB60FB68002B01D172B6FEE7FFF774FFEC
S1133FA0FB681A68FB68D96BFB681B6C4B43D2181F
S1133FB0FB685A60FB6800229A63FB681A68FB6816
S1133FC09A60FB681A68FB68DB6B591EFB681B6C04
S1133FD04B43D218FB68DA60FA684423FF21D154BA
S1133FE0FA684523FF21D1543B68002B0ED1FB68AE
S1133FF01B69002B14D0FB681033181C00F066FFFB
S1134000031C002B0CD0FFF75FFF09E0FB681033A3
S1134010181CFFF719FEFB682433181CFFF714FE65
S1134020FFF742FF0123181CBD4604B080BDC04603
S113403090B58BB002AFF860B960FB1D1A70FB68D5
S1134040002B01D172B6FEE7BB68002B02D100231E
S1134050FB6103E0FB68BA685343FB61FB694833C7
S1134060181CFFF73FFC031CBB61BB69002B0BD082
S1134070BB6948337B61F868B9687A69FB1D1B78B2
S1134080BC69009400F006F8BB69181CBD4609B071
S113409090BDC04680B584B000AFF860B9607A6066
S11340A01A1CFB1C1A70BB68002B03D1BB69BA69CC
S11340B01A6002E0BB697A681A60BB69FA68DA635D
S11340C0BB69BA681A64BB69181C0121FFF75AFF5F
S11340D0BD4604B080BDC04680B582B000AF7860F4
S11340E07B68002B0FD07B6800225A607B6800221B
S11340F01A607B680022DA607B68181C00210022A9
S1134100002300F07FF8BD4602B080BD80B586B0C4
S113411000AF021CFB1D1A7001237B6100233B616D
S113412079693A69FB1D1B78081C111C1A1CFFF7DE
S11341307FFF031CFB60FB68181CFFF7CDFFFB68C7
S1134140181CBD4606B080BD90B585B000AF786040
S11341507B68BB60BB68002B01D172B6FEE7BB680D
S11341605C6800F0F5FF031C9C4212D1BB68DB685D
S11341705A1EBB68DA60BB68DB68002B06D1BB68DB
S1134180181C00210022002300F03CF80123FB60EE
S113419001E00023FB60FB68181CBD4605B090BD20
S11341A090B585B000AF786039607B68BB60BB6850
S11341B0002B01D172B6FEE7BB685C6800F0C8FF53
S11341C0031C9C4207D1BB68DB685A1CBB68DA60DD
S11341D00123FB6011E0BA683B68101C00211A1C23
S11341E0002300F0DFF8031CFB60FB68002B04D005
S11341F0BB68DB685A1CBB68DA60FB68181CBD46E8
S113420005B090BD80B58AB000AFF860B9607A603F
S11342103B6000237B62FB683B623B6A002B01D15D
S113422072B6FEE7BB68002B03D13B6A1B6C002B04
S113423001D1012300E00023002B01D172B6FEE777
S11342403B68022B03D13B6ADB6B012B01D10123B9
S113425000E00023002B01D172B6FEE700F086FFD8
S1134260031C002B02D17B68002B01D1012300E049
S11342700023002B01D172B6FEE7FFF705FE3B6A6F
S11342809A6B3B6ADB6B9A4202D33B68022B21D1C7
S1134290396ABA683B68081C111C1A1C00F070F9D2
S11342A0031CFB613B6A5B6A002B0AD03B6A243324
S11342B0181C00F00BFE031C002B07D0FFF704FEB4
S11342C004E0FB69002B01D0FFF7FEFDFFF7ECFDD6
S11342D0012363E07B68002B03D1FFF7E5FD002396
S11342E05CE07B6A002B06D13B1C1433181C00F0E5
S11342F049FE01237B62FFF7D7FD00F015FCFFF7B1
S1134300C3FD3A6A4423D35CDBB25BB2013303D10D
S11343103A6A44230021D1543A6A4523D35CDBB280
S11343205BB2013303D13A6A45230021D154FFF72C
S1134330BBFD3A1C14323B1D101C191C00F03AFE44
S1134340031C002B21D13B6A181C00F027FA031C24
S1134350002B13D03B6A1A1C10327B68101C191CEA
S113436000F098FD3B6A181C00F0A2F900F0E8FB8D
S1134370031C002B11D1FFF7A7FD0EE03B6A181CAC
S113438000F096F900F0DCFB77E73B6A181C00F0BC
S11343908FF900F0D5FB002300E06EE7181CBD4642
S11343A00AB080BD80B58AB000AFF860B9607A60A9
S11343B03B6000237B62FB683B623B6A002B01D1BC
S11343C072B6FEE7BB68002B03D13B6A1B6C002B63
S11343D001D1012300E00023002B01D172B6FEE7D6
S11343E000F0C4FE031C002B02D17B68002B01D11A
S11343F0012300E00023002B01D172B6FEE7FFF792
S113440043FD3B6A9B6BFB61FB69002B3CD03B6A21
S1134410DB68BB613A6ABB68101C191C00F020F908
S11344203B68002B1BD1FB695A1E3B6A9A633B6AAB
S11344301B68002B04D100F06FFF021C3B6A5A601A
S11344403B6A1B69002B1BD03B6A1033181C00F01D
S11344503DFD031C002B13D0FFF736FD10E03B6A33
S1134460BA69DA603B6A5B6A002B09D03B6A243381
S1134470181C00F02BFD031C002B01D0FFF724FDBA
S1134480FFF712FD012377E07B68002B03D1FFF7D0
S11344900BFD002370E07B6A002B06D13B1C10331C
S11344A0181C00F06FFD01237B62FFF7FDFC00F098
S11344B03BFBFFF7E9FC3A6A4423D35CDBB25BB213
S11344C0013303D13A6A44230021D1543A6A452383
S11344D0D35CDBB25BB2013303D13A6A45230021DA
S11344E0D154FFF7E1FC3A1C10323B1D101C191C7F
S11344F000F060FD031C002B2ED13B6A181C00F059
S113450037F9031C002B20D03B6A1B68002B08D111
S1134510FFF7BAFC3B6A5B68181C00F043FEFFF728
S1134520C3FC3B6A1A1C24327B68101C191C00F063
S1134530B1FC3B6A181C00F0BBF800F001FB031C43
S1134540002B18D1FFF7C0FC15E03B6A181C00F0E3
S1134550AFF800F0F5FA52E73B6A181C00F0A8F82F
S113456000F0EEFA3B6A181C00F002F9031C002B61
S113457001D0002300E042E7181CBD460AB080BD0C
S113458080B586B000AFF860B9607A6000237B61C3
S1134590FB689B6B3B61FB681B6C002B0ED1FB68BB
S11345A01B68002B52D1FB685B68181C00F058FE96
S11345B0031C7B61FB6800225A6047E07B68002B88
S11345C01BD1FB689968FB681B6CBA68081C111C3A
S11345D01A1C00F079FFFB689A68FB681B6CD21800
S11345E0FB689A60FB689A68FB685B689A422DD303
S11345F0FB681A68FB689A6028E0FB68D968FB6866
S11346001B6CBA68081C111C1A1C00F05DFFFB68C7
S1134610DA68FB681B6C5B42D218FB68DA60FB68E3
S1134620DA68FB681B689A4207D2FB685A68FB6821
S11346301B6C5B42D218FB68DA607B68022B05D1E5
S11346403B69002B02D03B69013B3B613B695A1C2F
S1134650FB689A637B69181CBD4606B080BDC046E2
S113466080B582B000AF786039607B681B6C002B2A
S11346701AD07B68DA687B681B6CD2187B68DA60B6
S11346807B68DA687B685B689A4203D37B681A6844
S11346907B68DA607B68DA687B681B6C3968081CA5
S11346A0111C1A1C00F010FFBD4602B080BDC046AC
S11346B080B584B000AF7860FFF7E6FB3B1C0F3396
S11346C0796845228A5C1A7016E07B685B6A002B65
S11346D00AD07B682433181C00F0F8FB031C002B61
S11346E003D000F0B5FC00E00CE03B1C0F333A1C97
S11346F00F321278013A1A703B1C0F331B785BB2ED
S1134700002BE2DC7A684523FF21D154FFF7CCFB70
S1134710FFF7BAFB3B1C0E33796844228A5C1A709B
S113472016E07B681B69002B11D07B681033181CC2
S113473000F0CCFB031C002B01D000F089FC3B1CD7
S11347400E333A1C0E321278013A1A7000E005E07A
S11347503B1C0E331B785BB2002BE2DC7A684423EB
S1134760FF21D154FFF7A0FBBD4604B080BDC04675
S113477080B584B000AF7860FFF786FB7B689B6BE5
S1134780002B02D10123FB6001E00023FB60FFF753
S11347908BFBFB68181CBD4604B080BD80B584B09B
S11347A000AF7860FFF770FB7B689A6B7B68DB6B0C
S11347B09A4202D10123FB6001E00023FB60FFF772
S11347C073FBFB68181CBD4604B080BD80B584B083
S11347D000AF786039600023FB6014E00D4BFA6889
S11347E0D200D358002B0BD10A4BFA68D200396897
S11347F0D150084AFB68DB00D3187A685A6005E098
S1134800FB680133FB60FB68042BE7D9BD4604B0A9
S113481080BDC0468C03002090B58DB004AFF86015
S1134820B9603B60BB1D1A80BB1D1B889B00181C14
S1134830FFF758F8031C7B617B69002B10D05420D0
S1134840FFF750F8031CFB61FB69002B03D0FB69E5
S11348507A691A6306E07B69181CFFF7F3F801E034
S11348600023FB61FB69002B15D0BB1D1A88F86877
S1134870B9683B683C6B00947C6B0194FC690294BE
S11348800024039400F010F8FB69181C00F090F861
S11348900123BB6102E001235B42BB61BB69181CBD
S11348A0BD4609B090BDC04680B586B000AFF86083
S11348B0B9607A603B60BB6A1A6B7B689B00101C12
S11348C0A5211A1C00F009FEBB6A1A6B7B683749E4
S11348D05B189B00D3183B613B69072293433B6100
S11348E03A690723134001D072B6FEE7BB6A3A69FE
S11348F01A6400237B6113E0BA687B69D3181A78C1
S1134900B86A302379694118CB181A71BA687B697F
S1134910D3181B78002B00D105E07B6901337B6140
S11349207B690B2BE8D9BA6A3F230021D1543B6A37
S1134930052B01D905233B62BB6A3A6ADA62BB6A7A
S11349403A6A5A64BB6A00229A64BB6A0433181C2C
S1134950FFF798F9BB6A1833181CFFF793F9BB6A81
S1134960BA6A1A613B6A0622D21ABB6A9A61BB6AA6
S1134970BA6A5A62BB6A0022DA64BA6A5023002116
S1134980D1543969FA683B68081C111C1A1CFFF7DA
S113499003FA021CBB6A1A607B6A002B02D07B6A92
S11349A0BA6A1A60BD4606B080BDC046FFFFFF3F2D
S11349B080B582B000AF7860FFF766FA274B1B68BA
S11349C05A1C264B1A60264B1B68002B09D1244B1A
S11349D07A681A60214B1B68012B10D100F054FB3C
S11349E00DE0204B1B68002B09D11D4B1B68DA6AB4
S11349F07B68DB6A9A4202D8194B7A681A601A4BB0
S1134A001B685A1C184B1A607B68DA6A174B1B68C0
S1134A109A4203D97B68DA6A144B1A607B68DA6AB3
S1134A20131C9B009B189B00114A9A187B68043343
S1134A30101C191CFFF730F9FFF736FA094B1B68F5
S1134A40002B08D0064B1B68DA6A7B68DB6A9A4243
S1134A5001D2FFF739FABD4602B080BD78020020CA
S1134A60A40100208402002094020020800200207F
S1134A70A801002080B584B000AF78600023FB60FB
S1134A807B68002B10D00C4B1B68002B01D072B636
S1134A90FEE700F049F87B68181C002100F04EFC8A
S1134AA000F04EF8031CFB60FB68002B01D1FFF7FC
S1134AB00BFABD4604B080BDA002002080B584B0CE
S1134AC002AF134A134B0021009113490191101CAA
S1134AD0191CC8220023FFF79FFE031C7B607B6820
S1134AE0012B0DD172B60D4B012252421A600C4BB0
S1134AF001221A600B4B00221A60FFF7ABF904E0A5
S1134B007B68013301D172B6FEE7BD4602B080BDB9
S1134B1065500000C46900009C0200209802002037
S1134B20840200207C02002080B500AF034B1B6888
S1134B305A1C024B1A60BD4680BDC046A00200202C
S1134B4080B584B000AF0023FB600023BB603A4B08
S1134B501B68002B01D172B6FEE7FFF795F9364BBF
S1134B601B685A1E344B1A60334B1B68002B5CD1F4
S1134B70324B1B68002B58D02FE0314BDB68DB68CD
S1134B80FB60FB681833181CFFF7DEF8FB6804337E
S1134B90181CFFF7D9F8FB68DA6A2A4B1B689A429B
S1134BA003D9FB68DA6A274B1A60FB68DA6A131CBC
S1134BB09B009B189B00244A9A18FB680433101C22
S1134BC0191CFFF769F8FB68DA6A204B1B68DB6A7B
S1134BD09A4202D31E4B01221A60194B1B68002B08
S1134BE0CBD1FB68002B01D000F090FA194B1B6865
S1134BF07B607B68002B10D000F02EF8031C002B88
S1134C0002D0134B01221A607B68013B7B607B68F6
S1134C10002BF1D10F4B00221A600D4B1B68002BA7
S1134C2003D00123BB60FFF74FF9FFF73DF9BB68E1
S1134C30181CBD4604B080BDA002002078020020EC
S1134C405002002080020020A8010020A4010020BE
S1134C508C0200208802002080B586B000AF0023BB
S1134C607B61504B1B68002B00D089E04E4B1B68C6
S1134C7001333B614C4B3A691A603B69002B17D1F5
S1134C804A4B1B681B68002B01D072B6FEE7474BEA
S1134C901B68FB60464B1A68444B1A60444BFA6825
S1134CA01A60444B1B685A1C424B1A6000F02EFADF
S1134CB0414B1B683A699A424ED33C4B1B681B68B4
S1134CC0002B01D1012300E00023002B04D03A4B38
S1134CD0012252421A603FE0344B1B68DB68DB68F8
S1134CE0BB60BB685B687B603A697B689A4203D2AD
S1134CF0314B7A681A602FE0BB680433181CFFF745
S1134D0023F8BB689B6A002B04D0BB681833181CBB
S1134D10FFF71AF8BB68DA6A284B1B689A4203D972
S1134D20BB68DA6A254B1A60BB68DA6A131C9B00FD
S1134D309B189B00224A9A18BB680433101C191C48
S1134D40FEF7AAFFBB68DA6A1E4B1B68DB6A9A424D
S1134D5001D301237B61B0E71A4B1B68DA6A184957
S1134D60131C9B009B189B005B58012B01D901234A
S1134D707B61154B1B68002B01D1FBF71BFC06E084
S1134D80114B1B685A1C104B1A60FBF713FC0F4B9A
S1134D901B68002B01D001237B617B69181CBD4675
S1134DA006B080BDA00200207C0200204802002042
S1134DB04C02002090020020980200208002002073
S1134DC0A8010020A4010020880200208C020020F9
S1134DD080B582B000AF2A4B1B68002B03D0294B4F
S1134DE001221A6048E0274B00221A60264B1B68F8
S1134DF01A68254B1B681B6B9A4208D8224B1A6809
S1134E00214B1B683433101C191CFBF7CBFB1F4BC5
S1134E101B687B6007E07B68002B01D172B6FEE75C
S1134E207B68013B7B601A497A68131C9B009B18C2
S1134E309B005B58002BEED07A68131C9B009B18D8
S1134E409B00134A9B183B603B685B685A683B684D
S1134E505A603B685A683B6808339A4204D13B68FD
S1134E605B685A683B685A603B685B68DA68064B63
S1134E701A60064B7A681A60BD4602B080BDC0460F
S1134E80A00200208C020020A40100208002002047
S1134E90A801002080B582B000AF786039607B68DB
S1134EA0002B01D172B6FEE7074B1B6818337A68F2
S1134EB0101C191CFEF712FF3B68181C012100F09E
S1134EC03DFABD4602B080BDA401002080B584B087
S1134ED000AF78607B68DB68DB68BB60BB68002B75
S1134EE001D172B6FEE7BB681833181CFEF72CFF1D
S1134EF01E4B1B68002B1DD1BB680433181CFEF726
S1134F0023FFBB68DA6A1A4B1B689A4203D9BB6851
S1134F10DA6A174B1A60BB68DA6A131C9B009B1889
S1134F209B00144A9A18BB680433101C191CFEF722
S1134F30B3FE06E0BB6818330F4A101C191CFEF7B9
S1134F40ABFEBB68DA6A0D4B1B68DB6A9A4205D973
S1134F500123FB600A4B01221A6001E00023FB607D
S1134F60FB68181CBD4604B080BDC046A0020020EA
S1134F7080020020A801002050020020A40100208B
S1134F808C02002080B582B000AF78607B68002B73
S1134F9001D172B6FEE7054B1A687B681A60044BB0
S1134FA01A687B685A60BD4602B080BD900200203A
S1134FB07C02002080B584B000AF786039607B68E3
S1134FC0002B01D172B6FEE73B68002B01D172B60B
S1134FD0FEE7FEF759FF1C4B1B68BB603B681B6870
S1134FE0013302D10023FB6027E07B681A68174B6A
S1134FF01B689A4207D07B685A68BB689A4202D8F9
S11350000123FB6019E07B685B68BA68D21A3B68CD
S11350101B689A420FD23B681A687B685968BB6860
S1135020CB1AD2183B681A607B68181CFFF7AAFFDA
S11350300023FB6001E00123FB60FEF735FFFB6802
S1135040181CBD4604B080BD7C02002090020020E4
S113505080B500AF024B01221A60BD4680BDC04638
S11350608C02002080B582B000AF786000F04AF86E
S1135070044B1B68012B01D9FEF726FFFBF79EFAB0
S1135080F4E7C046A801002080B582B000AF002339
S11350907B600CE07A68131C9B009B189B00124AEF
S11350A09B18181CFEF7D0FD7B6801337B607B687E
S11350B0052BEFD90D4B181CFEF7C6FD0C4B181C25
S11350C0FEF7C2FD0B4B181CFEF7BEFD0A4B181C65
S11350D0FEF7BAFD094B054A1A60094B044A1A60E7
S11350E0BD4602B080BDC046A801002020020020B9
S11350F034020020500200206402002048020020F4
S11351004C02002080B500AFBD4680BD80B582B0A2
S113511000AF0D4B1B681B68002B01D1012300E07D
S11351200023002B04D0094B012252421A6008E0EC
S1135130054B1B68DB68DB687B607B685A68034B44
S11351401A60BD4602B080BD4802002098020020CB
S113515080B582B000AF044B1B687B607B68181C71
S1135160BD4602B080BDC046A401002080B582B017
S113517000AF0A4B1B68002B02D101237B6008E0BF
S1135180074B1B68002B02D102237B6001E0002344
S11351907B607B68181CBD4602B080BD8402002081
S11351A0A002002080B584B000AF78607B68FB600B
S11351B07B68002B4AD0FB68DA6A264B1B68DB6AE3
S11351C09A4243D2FB689B69002B06DB214B1B6888
S11351D0DB6A0622D21AFB689A61FB685969FB688C
S11351E0DA6A131C9B009B189B001B4A9B1899426C
S11351F001D1012300E00023002B22D0FB680433FB
S1135200181CFEF7A1FD134B1B68DA6AFB68DA620F
S1135210FB68DA6A114B1B689A4203D9FB68DA6AA5
S11352200E4B1A60FB68DA6A131C9B009B189B00E8
S1135230094A9A18FB680433101C191CFEF72CFD4C
S113524004E0044B1B68DA6AFB68DA62BD4604B00A
S113525080BDC046A4010020A801002080020020D7
S113526080B584B000AF78607B68BB600023FB60CE
S11352707B68002B44D0254B1B68BA689A4201D046
S113528072B6FEE7BB689B6C002B01D172B6FEE7D9
S1135290BB689B6C5A1EBB689A64BB68DA6ABB68BD
S11352A05B6C9A422CD0BB689B6C002B28D1BB68EA
S11352B00433181CFEF748FDBB685A6CBB68DA62FD
S11352C0BB68DB6A0622D21ABB689A61BB68DA6AD9
S11352D00F4B1B689A4203D9BB68DA6A0C4B1A60FD
S11352E0BB68DA6A131C9B009B189B00094A9A1836
S11352F0BB680433101C191CFEF7CEFC0123FB60B1
S1135300FB68181CBD4604B080BDC046A401002043
S113531080020020A801002080B500AF064B1B6866
S1135320002B04D0044B1B689A6C01329A64024B24
S11353301B68181CBD4680BDA401002080B584B044
S113534000AF78603960214B1B68FB60204B1B6801
S11353500433181CFEF7F8FC7B6801330BD13B685F
S1135360002B08D01A4B1B6804331A4A101C191C52
S1135370FEF792FC26E0FA687B68D318BB60144BF6
S11353801B68BA685A60BA68FB689A4209D2124B21
S11353901A680F4B1B680433101C191CFEF79EFC83
S11353A010E00E4B1A680A4B1B680433101C191CBE
S11353B0FEF794FC0A4B1B68BA689A4202D2084B67
S11353C0BA681A60BD4604B080BDC0467C020020A5
S11353D0A4010020640200204C02002048020020A6
S11353E0980200207FB5061C09480068C068002A9E
S11353F002D0151C074C01E0074C251C1A1C009117
S1135400331C06490194029500F026F800F058FE7A
S1135410ACF0FF1F0D6A0000486A00001A6A000021
S113542008B500210A2200F069F908BD084B10B53F
S1135430041C002B02D0002100E000BF054B1868BB
S1135440836A002B00D09847201C01F06FFAC046F5
S1135450000000004C6A00000EB403B503AB04CB9B
S1135460054A011C1068039A019300F0CDFA02B0BA
S113547008BC03B01847C046ACF0FF1F70B50E4B14
S11354800E4D0024ED1AAD101E1CAC4204D0A30036
S1135490F35898470134F8E701F0A4FB084B094D91
S11354A00024ED1AAD101E1CAC4204D0A300F35826
S11354B098470134F8E770BD046C0000046C0000E8
S11354C0046C0000086C000010B50023934203D064
S11354D0CC5CC4540133F9E710BD031C8218934219
S11354E002D019700133FAE7704700000EB400B51A
S11354F09CB01DAB04CB822202A992008A810A4A85
S113550002908A604A6101225242CA81074A0861B4
S113551010681D9A019300F05FF9029A002313703A
S11355201CB008BC03B01847FFFFFF7FACF0FF1F9F
S1135530031C0A7801311A700133002AF9D170472B
S11355400023C25C0133002AFBD1581E704710B5FA
S11355500378002B06D10B785A4253415B42184022
S11355600DE001300378002B08D00023CA5C002A28
S113557005D0C45C9442F4D10133F7E7181C10BD84
S1135580F0B5002802D11068002826D00578441C04
S11355900E1C3778002F09D00136BD42F9D1002BFB
S11355A001D0201CF2E71460037016E0002D09D12D
S11355B01560281C11E02F78B74207D00135002F61
S11355C0F9D11C1C631C26780D1CF4E7002E02D0B4
S11355D00021217000E0331C1360F0BD08B50123E5
S11355E0FFF7CEFF08BD0000F0B51D1C424B87B08D
S11355F01B6805900293039101920B1C1C78029F77
S11356005E1C3A19517808220A4001D0331CF5E790
S11356102D2C04D101279E1C5C78009704E0009295
S11356202B2C01D15C789E1C10232A1C9A4311D187
S1135630302C08D1327820218A43582A07D1747833
S11356401D1C023606E0002D04D10A2502E0002DBF
S113565000D10825009F291C7B427B4180273F06FF
S1135660FF1A381CFAF784FF381C0491291CFAF736
S11356703BFF0023021C181C029F391949784F076D
S113568001D5303C07E003270F4017D05721012FE5
S113569000D13721641AAC4210DA591C0BD0904265
S11356A007D802D1049FBC4203DC684301232018BD
S11356B001E001235B4234780136DDE7009F591C89
S11356C00BD180207B427B410006059FC01A222318
S11356D03B60019F002F09D10BE0002F00D0404216
S11356E0019F002F05D0039A002B00D0721E019F4A
S11356F03A6007B0F0BDC046B0F0FF1F38B5131CC8
S1135700044A051C0C1C1068291C221CFFF76CFFA2
S113571038BDC046ACF0FF1FF0B58D6885B0071CDE
S11357200C1C03920193AB4245D390228B89D20087
S113573013423DD062690326564309692068F20F7B
S1135740401A96190290021C019801321218761020
S1135750964200D2161C381C5A050FD5311C00F095
S1135760EBFE051E13D0029A2169FFF7ADFEA28954
S1135770184B134080221343A38111E0321C00F024
S11357802FFF051E0CD1381C216900F08DFE0C235F
S11357903B60A389402213430120A381404217E0C8
S11357A0029B2561ED1825606661019DF61AA660CD
S11357B00198A84200D2019D2A1C2068039900F098
S11357C05AFEA2680020531BA36023685D1925605C
S11357D005B0F0BD7FFBFFFFF0B59FB003900593CC
S11357E08B890E1C171C19060FD53269002A0CD19F
S11357F0402100F0A1FE30603061002803D10399FC
S11358000C230B60C9E04023736106AD00236B6178
S113581020236B763023AB763C1C2378002B03D1FA
S1135820E21B029211D003E0252BF9D00134F4E7F6
S11358300398311C3A1C029BFFF76EFF013000D124
S1135840A6E06969029A8B186B612378002B00D15A
S11358509EE0012252426A606A4600235B320134B0
S11358602B60EB60AB601370AB654E4F2178381C36
S1135870052200F0F5FD002807D0C71B2B68012086
S1135880B840184328600134EFE72B68D90603D5E4
S11358906A4620215B3211701A0703D56A462B2110
S11358A05B32117022782A2A01D0099B0EE0059AF6
S11358B0111D12680591002A01DB099204E052428D
S11358C0EA60022213432B60013409E02278303A63
S11358D0092A04D80A214B4301349B18F6E709939B
S11358E023782E2B18D163782A2B09D1059B0234F7
S11358F01A1D1B680592002B0DDA01235B420AE096
S1135900013400232278303A092A04D80A214B436F
S113591001349B18F6E70793234F2178381C0322A0
S113592000F09EFD002806D0C71B2B684020B8401D
S113593018432860013421781C480622671C297604
S113594000F08EFD002812D0194B002B06D1059BC8
S11359500722073393430833059314E005AB009300
S11359600398291C321C134B00E000BF07E005AB71
S113597000930398291C321C0E4B00F0C1F90490CB
S11359800499013104D06A69049953186B6143E79F
S1135990B3895A0601D40B9801E0012040421FB09C
S11359A0F0BDC046506A0000566A00005A6A000002
S11359B00000000019570000936810B5013B936084
S11359C0002B05DA9469A34208DBCBB20A2B05D07D
S11359D01368581C10601970C8B201E000F0A6FAF0
S11359E010BDF8B5061C0F1C141CD518AC4208D009
S11359F02178301C3A1CFFF7DFFF0134431CF5D13A
S1135A0000E00020F8BD0000F0B59FB0061C0F1C9C
S1135A1003920593002804D08169002901D100F084
S1135A205FFC754B9F4201D1776808E0734B9F423E
S1135A3001D1B76803E0724B9F4200D1F768BB897C
S1135A401A070AD53B69002B07D006AD00236B610A
S1135A5020236B763023AB763BE0301C391C00F0FE
S1135A60BDFA0028F1D001204042C2E0059A111D80
S1135A7012680591002A76DB0992013423782E2BD3
S1135A8000D181E021785F48032200F0E9FC00287E
S1135A9007D05C492A68431A402098401043286084
S1135AA001342178631C584806220393297600F0B8
S1135AB0D7FC002800D18AE0544B002B7ED1059BF3
S1135AC0072207339343083305936A6904995318EB
S1135AD06B61039C2378002B04D10399611A029112
S1135AE010D003E0252BF8D00134F3E7301C391C27
S1135AF0039A029BFFF775FF013075D06A6902991A
S1135B0053186B612378002B6ED0012252426A60D5
S1135B106A4600235B3201342B60EB60AB60137088
S1135B20AB6521783A48052200F09AFC002808D099
S1135B30374A0134831A012098402B68184328609F
S1135B40EFE72B68D90603D56A4620215B32117032
S1135B501A0703D56A462B215B32117022782A2A50
S1135B6084D0099B05E05242EA60022213432B6071
S1135B7083E72278303A092A04D80A214B430134B6
S1135B809B18F6E7099379E763782A2B09D1059BDB
S1135B9002341A1D1B680592002B0DDA01235B42A7
S1135BA00AE0013400232278303A092A04D80A2171
S1135BB04B4301349B18F6E7079363E705AB009367
S1135BC0301C291C3A1C134B00E000BF07E005AB56
S1135BD00093301C291C3A1C0E4B00F091F80490E1
S1135BE00499013100D070E7BB895A0600D53AE721
S1135BF00B981FB0F0BDC046846B0000A46B00007E
S1135C00C46B0000566A00005A6A000000000000DD
S1135C10506A0000E3590000F7B5151C01930A69A6
S1135C208B68061C0C1C934200DA131C221C2B608C
S1135C3043321278002A01D001332B602068800699
S1135C4002D52B6802332B60216806270F401FD032
S1135C50231C43331B785A1E9341226892061FD596
S1135C60E11840313020C870211C5A1C4531097894
S1135C70A21840320233D17012E0221C301C019968
S1135C8019320123089FB847013011D0009F013712
S1135C900097E0682968009F431A9F42EDDBD7E72D
S1135CA0221C301C01994332089FB847013002D1AD
S1135CB00120404223E0206806212B68E26801406D
S1135CC00025042903D1D51AEB43DB171D40A26834
S1135CD023699A4201DDD31AED1800270097009F2B
S1135CE0AF420BDA221C301C01991A320123089F9F
S1135CF0B8470130DCD0009F0137EFE70020FEBD3C
S1135D00F0B50D1C8BB043350692059007930495AE
S1135D100B7E0C1C109A6E2B00D1A7E011D8632BBC
S1135D2022D009D8002B00D1B0E0582B00D0C0E01D
S1135D3045310B707B4D4EE0642B1CD0692B1AD07F
S1135D40B7E0732B00D1A5E009D86F2B29D0702BB5
S1135D5000D0AEE00E68202333430B6036E0752B91
S1135D601FD0782B32D0A4E013680D1C191D4235C6
S1135D7011601B689FE0216813680E0603D5191D86
S1135D8011601E6805E04806F9D5191D116000214F
S1135D905E5E644B002E3BDA049D2D2276422A700F
S1135DA036E0216813680E0603D5191D11601E68BC
S1135DB004E04806F9D5191D1E881160594B227E4E
S1135DC0039308276F2A1ED00A271CE0231C78217E
S1135DD04533554D197011682368081D03951060EB
S1135DE01E0601D50E6802E05806FBD50E88D907B9
S1135DF002D52022134323601027002E03D12268EA
S1135E0020239A432260231C002243331A7001E0AA
S1135E1003930A276368A360002B03DB256804222D
S1135E2095432560002E02D1049D002B0ED0049DC5
S1135E30301C391CFAF79CFB0398013D435C301C71
S1135E402B70391CFAF750FB061EF1D1082F09D12B
S1135E502168C90706D5626823699A4202DC013DBC
S1135E6030232B70049E731B23612AE00868136897
S1135E704969050604D5181D10601B68196005E002
S1135E804606F8D5181D10601B681980002323618D
S1135E90049D16E01368191D11601D68281CFFF786
S1135EA04FFB63682061984200D9236120696060D8
S1135EB004E0251C42352B7001232361049E00233A
S1135EC03370079E05980096211C09AA069BFFF7CC
S1135ED0A3FE013002D10120404221E02A1C059892
S1135EE006992369079DA8470130F4D02668B607B0
S1135EF005D4099BE068984212DA181C10E00025CA
S1135F00E0680999431A9D42F3DA221C0598069920
S1135F1019320123079EB0470130DCD00135EFE789
S1135F200BB0F0BD616A0000726A000070B5051C18
S1135F300E1C141C002804D08269002A01D100F030
S1135F40CFF9234B9C4201D16C6808E0214B9C4261
S1135F5001D1AC6803E0204B9C4200D1EC68A369FA
S1135F60A360A3891A070AD52369002B07D02268E6
S1135F702369F6B2D01A626990420FDB08E0281C4C
S1135F80211C00F02BF80028F1D0012040421DE034
S1135F90281C211C00F024F90028F6D1A368013044
S1135FA0013BA36023685A1C22601E7063699842F7
S1135FB005D0A389301CDA0708D50A2E06D1281C7F
S1135FC0211C00F00DF90028DFD1301C70BDC04643
S1135FD0846B0000A46B0000C46B0000344B70B5EC
S1135FE01D68061C0C1C002D05D0A969002902D1CE
S1135FF0281C00F075F92F4B9C4201D16C6808E015
S11360002D4B9C4201D1AC6803E02C4B9C4200D147
S1136010EC68A28993B2190721D4D90605D40923BF
S1136020336040231A43A2813FE05A0713D5616BC2
